{
  "_format": "hh-sol-artifact-1",
  "contractName": "Staking",
  "sourceName": "contracts/Staking.sol",
  "abi": [
    {
      "inputs": [],
      "stateMutability": "nonpayable",
      "type": "constructor"
    },
    {
      "inputs": [
        {
          "internalType": "address",
          "name": "spender",
          "type": "address"
        },
        {
          "internalType": "uint256",
          "name": "allowance",
          "type": "uint256"
        },
        {
          "internalType": "uint256",
          "name": "needed",
          "type": "uint256"
        }
      ],
      "name": "ERC20InsufficientAllowance",
      "type": "error"
    },
    {
      "inputs": [
        {
          "internalType": "address",
          "name": "sender",
          "type": "address"
        },
        {
          "internalType": "uint256",
          "name": "balance",
          "type": "uint256"
        },
        {
          "internalType": "uint256",
          "name": "needed",
          "type": "uint256"
        }
      ],
      "name": "ERC20InsufficientBalance",
      "type": "error"
    },
    {
      "inputs": [
        {
          "internalType": "address",
          "name": "approver",
          "type": "address"
        }
      ],
      "name": "ERC20InvalidApprover",
      "type": "error"
    },
    {
      "inputs": [
        {
          "internalType": "address",
          "name": "receiver",
          "type": "address"
        }
      ],
      "name": "ERC20InvalidReceiver",
      "type": "error"
    },
    {
      "inputs": [
        {
          "internalType": "address",
          "name": "sender",
          "type": "address"
        }
      ],
      "name": "ERC20InvalidSender",
      "type": "error"
    },
    {
      "inputs": [
        {
          "internalType": "address",
          "name": "spender",
          "type": "address"
        }
      ],
      "name": "ERC20InvalidSpender",
      "type": "error"
    },
    {
      "anonymous": false,
      "inputs": [
        {
          "indexed": true,
          "internalType": "address",
          "name": "owner",
          "type": "address"
        },
        {
          "indexed": true,
          "internalType": "address",
          "name": "spender",
          "type": "address"
        },
        {
          "indexed": false,
          "internalType": "uint256",
          "name": "value",
          "type": "uint256"
        }
      ],
      "name": "Approval",
      "type": "event"
    },
    {
      "anonymous": false,
      "inputs": [
        {
          "indexed": true,
          "internalType": "address",
          "name": "from",
          "type": "address"
        },
        {
          "indexed": true,
          "internalType": "address",
          "name": "to",
          "type": "address"
        },
        {
          "indexed": false,
          "internalType": "uint256",
          "name": "value",
          "type": "uint256"
        }
      ],
      "name": "Transfer",
      "type": "event"
    },
    {
      "anonymous": false,
      "inputs": [
        {
          "indexed": false,
          "internalType": "uint256",
          "name": "walletId",
          "type": "uint256"
        },
        {
          "indexed": false,
          "internalType": "address",
          "name": "walletAddress",
          "type": "address"
        }
      ],
      "name": "_WalletCreate",
      "type": "event"
    },
    {
      "anonymous": false,
      "inputs": [
        {
          "indexed": false,
          "internalType": "uint256",
          "name": "WalletId",
          "type": "uint256"
        },
        {
          "indexed": false,
          "internalType": "uint256",
          "name": "ethAmount",
          "type": "uint256"
        }
      ],
      "name": "_stakeEth",
      "type": "event"
    },
    {
      "anonymous": false,
      "inputs": [
        {
          "indexed": false,
          "internalType": "uint256",
          "name": "WalletId",
          "type": "uint256"
        },
        {
          "indexed": false,
          "internalType": "uint256",
          "name": "ethAmount",
          "type": "uint256"
        },
        {
          "indexed": false,
          "internalType": "uint256",
          "name": "rewards",
          "type": "uint256"
        }
      ],
      "name": "_unstakeEth",
      "type": "event"
    },
    {
      "anonymous": false,
      "inputs": [
        {
          "indexed": false,
          "internalType": "uint256",
          "name": "WalletId",
          "type": "uint256"
        },
        {
          "indexed": false,
          "internalType": "uint256",
          "name": "ethAmount",
          "type": "uint256"
        }
      ],
      "name": "_walletDeposit",
      "type": "event"
    },
    {
      "anonymous": false,
      "inputs": [
        {
          "indexed": false,
          "internalType": "uint256",
          "name": "WalletId",
          "type": "uint256"
        },
        {
          "indexed": false,
          "internalType": "uint256",
          "name": "ethAmount",
          "type": "uint256"
        },
        {
          "indexed": false,
          "internalType": "address",
          "name": "to",
          "type": "address"
        }
      ],
      "name": "_walletWithdraw",
      "type": "event"
    },
    {
      "inputs": [
        {
          "internalType": "address",
          "name": "owner",
          "type": "address"
        },
        {
          "internalType": "address",
          "name": "spender",
          "type": "address"
        }
      ],
      "name": "allowance",
      "outputs": [
        {
          "internalType": "uint256",
          "name": "",
          "type": "uint256"
        }
      ],
      "stateMutability": "view",
      "type": "function"
    },
    {
      "inputs": [
        {
          "internalType": "address",
          "name": "spender",
          "type": "address"
        },
        {
          "internalType": "uint256",
          "name": "value",
          "type": "uint256"
        }
      ],
      "name": "approve",
      "outputs": [
        {
          "internalType": "bool",
          "name": "",
          "type": "bool"
        }
      ],
      "stateMutability": "nonpayable",
      "type": "function"
    },
    {
      "inputs": [
        {
          "internalType": "address",
          "name": "account",
          "type": "address"
        }
      ],
      "name": "balanceOf",
      "outputs": [
        {
          "internalType": "uint256",
          "name": "",
          "type": "uint256"
        }
      ],
      "stateMutability": "view",
      "type": "function"
    },
    {
      "inputs": [
        {
          "internalType": "uint256",
          "name": "_walletId",
          "type": "uint256"
        }
      ],
      "name": "currentReward",
      "outputs": [
        {
          "internalType": "uint256",
          "name": "",
          "type": "uint256"
        }
      ],
      "stateMutability": "view",
      "type": "function"
    },
    {
      "inputs": [
        {
          "internalType": "uint256",
          "name": "_walletId",
          "type": "uint256"
        }
      ],
      "name": "currentStake",
      "outputs": [
        {
          "internalType": "uint256",
          "name": "",
          "type": "uint256"
        }
      ],
      "stateMutability": "view",
      "type": "function"
    },
    {
      "inputs": [],
      "name": "decimals",
      "outputs": [
        {
          "internalType": "uint8",
          "name": "",
          "type": "uint8"
        }
      ],
      "stateMutability": "view",
      "type": "function"
    },
    {
      "inputs": [],
      "name": "deposit",
      "outputs": [],
      "stateMutability": "payable",
      "type": "function"
    },
    {
      "inputs": [],
      "name": "getWallets",
      "outputs": [
        {
          "components": [
            {
              "internalType": "contract EtherWallet",
              "name": "wallet",
              "type": "address"
            },
            {
              "internalType": "uint256",
              "name": "totalAmount",
              "type": "uint256"
            },
            {
              "internalType": "uint256",
              "name": "StartTimeStake",
              "type": "uint256"
            },
            {
              "internalType": "uint256",
              "name": "endTimeStake",
              "type": "uint256"
            }
          ],
          "internalType": "struct Staking.CurrentStake[]",
          "name": "",
          "type": "tuple[]"
        }
      ],
      "stateMutability": "view",
      "type": "function"
    },
    {
      "inputs": [
        {
          "internalType": "uint256",
          "name": "_walletId",
          "type": "uint256"
        }
      ],
      "name": "isWalletStaked",
      "outputs": [
        {
          "internalType": "bool",
          "name": "",
          "type": "bool"
        }
      ],
      "stateMutability": "view",
      "type": "function"
    },
    {
      "inputs": [],
      "name": "myBalance",
      "outputs": [
        {
          "internalType": "uint256",
          "name": "",
          "type": "uint256"
        }
      ],
      "stateMutability": "view",
      "type": "function"
    },
    {
      "inputs": [],
      "name": "name",
      "outputs": [
        {
          "internalType": "string",
          "name": "",
          "type": "string"
        }
      ],
      "stateMutability": "view",
      "type": "function"
    },
    {
      "inputs": [],
      "name": "owner",
      "outputs": [
        {
          "internalType": "address payable",
          "name": "",
          "type": "address"
        }
      ],
      "stateMutability": "view",
      "type": "function"
    },
    {
      "inputs": [],
      "name": "percentPerBlock",
      "outputs": [
        {
          "internalType": "uint256",
          "name": "",
          "type": "uint256"
        }
      ],
      "stateMutability": "view",
      "type": "function"
    },
    {
      "inputs": [
        {
          "internalType": "uint256",
          "name": "_walletId",
          "type": "uint256"
        },
        {
          "internalType": "uint256",
          "name": "_amountStake",
          "type": "uint256"
        }
      ],
      "name": "stakeEth",
      "outputs": [],
      "stateMutability": "nonpayable",
      "type": "function"
    },
    {
      "inputs": [],
      "name": "symbol",
      "outputs": [
        {
          "internalType": "string",
          "name": "",
          "type": "string"
        }
      ],
      "stateMutability": "view",
      "type": "function"
    },
    {
      "inputs": [],
      "name": "totalAddressesStaked",
      "outputs": [
        {
          "internalType": "uint256",
          "name": "",
          "type": "uint256"
        }
      ],
      "stateMutability": "view",
      "type": "function"
    },
    {
      "inputs": [],
      "name": "totalSupply",
      "outputs": [
        {
          "internalType": "uint256",
          "name": "",
          "type": "uint256"
        }
      ],
      "stateMutability": "view",
      "type": "function"
    },
    {
      "inputs": [
        {
          "internalType": "address",
          "name": "to",
          "type": "address"
        },
        {
          "internalType": "uint256",
          "name": "value",
          "type": "uint256"
        }
      ],
      "name": "transfer",
      "outputs": [
        {
          "internalType": "bool",
          "name": "",
          "type": "bool"
        }
      ],
      "stateMutability": "nonpayable",
      "type": "function"
    },
    {
      "inputs": [
        {
          "internalType": "address",
          "name": "from",
          "type": "address"
        },
        {
          "internalType": "address",
          "name": "to",
          "type": "address"
        },
        {
          "internalType": "uint256",
          "name": "value",
          "type": "uint256"
        }
      ],
      "name": "transferFrom",
      "outputs": [
        {
          "internalType": "bool",
          "name": "",
          "type": "bool"
        }
      ],
      "stateMutability": "nonpayable",
      "type": "function"
    },
    {
      "inputs": [
        {
          "internalType": "uint256",
          "name": "_walletId",
          "type": "uint256"
        }
      ],
      "name": "unstakeEth",
      "outputs": [],
      "stateMutability": "payable",
      "type": "function"
    },
    {
      "inputs": [
        {
          "internalType": "uint256",
          "name": "_walletId",
          "type": "uint256"
        }
      ],
      "name": "walletBalance",
      "outputs": [
        {
          "internalType": "uint256",
          "name": "",
          "type": "uint256"
        }
      ],
      "stateMutability": "view",
      "type": "function"
    },
    {
      "inputs": [],
      "name": "walletCreate",
      "outputs": [
        {
          "internalType": "uint256",
          "name": "walletId",
          "type": "uint256"
        }
      ],
      "stateMutability": "nonpayable",
      "type": "function"
    },
    {
      "inputs": [
        {
          "internalType": "uint256",
          "name": "_walletId",
          "type": "uint256"
        }
      ],
      "name": "walletDeposit",
      "outputs": [],
      "stateMutability": "payable",
      "type": "function"
    },
    {
      "inputs": [
        {
          "internalType": "uint256",
          "name": "_walletId",
          "type": "uint256"
        },
        {
          "internalType": "address payable",
          "name": "_to",
          "type": "address"
        },
        {
          "internalType": "uint256",
          "name": "_amount",
          "type": "uint256"
        }
      ],
      "name": "walletWithdraw",
      "outputs": [],
      "stateMutability": "payable",
      "type": "function"
    },
    {
      "inputs": [
        {
          "internalType": "address payable",
          "name": "reciver",
          "type": "address"
        },
        {
          "internalType": "uint256",
          "name": "amount",
          "type": "uint256"
        }
      ],
      "name": "withdraw",
      "outputs": [],
      "stateMutability": "nonpayable",
      "type": "function"
    },
    {
      "stateMutability": "payable",
      "type": "receive"
    }
  ],
  "bytecode": "0x60806040523480156200001157600080fd5b506040518060400160405280600781526020017f77656233466564000000000000000000000000000000000000000000000000008152506040518060400160405280600281526020017f5746000000000000000000000000000000000000000000000000000000000000815250326000806101000a81548173ffffffffffffffffffffffffffffffffffffffff021916908373ffffffffffffffffffffffffffffffffffffffff1602179055508160049081620000cf919062000364565b508060059081620000e1919062000364565b5050506200044b565b600081519050919050565b7f4e487b7100000000000000000000000000000000000000000000000000000000600052604160045260246000fd5b7f4e487b7100000000000000000000000000000000000000000000000000000000600052602260045260246000fd5b600060028204905060018216806200016c57607f821691505b60208210810362000182576200018162000124565b5b50919050565b60008190508160005260206000209050919050565b60006020601f8301049050919050565b600082821b905092915050565b600060088302620001ec7fffffffffffffffffffffffffffffffffffffffffffffffffffffffffffffffff82620001ad565b620001f88683620001ad565b95508019841693508086168417925050509392505050565b6000819050919050565b6000819050919050565b6000620002456200023f620002398462000210565b6200021a565b62000210565b9050919050565b6000819050919050565b620002618362000224565b6200027962000270826200024c565b848454620001ba565b825550505050565b600090565b6200029062000281565b6200029d81848462000256565b505050565b5b81811015620002c557620002b960008262000286565b600181019050620002a3565b5050565b601f8211156200031457620002de8162000188565b620002e9846200019d565b81016020851015620002f9578190505b6200031162000308856200019d565b830182620002a2565b50505b505050565b600082821c905092915050565b6000620003396000198460080262000319565b1980831691505092915050565b600062000354838362000326565b9150826002028217905092915050565b6200036f82620000ea565b67ffffffffffffffff8111156200038b576200038a620000f5565b5b62000397825462000153565b620003a4828285620002c9565b600060209050601f831160018114620003dc5760008415620003c7578287015190505b620003d3858262000346565b86555062000443565b601f198416620003ec8662000188565b60005b828110156200041657848901518255600182019150602085019450602081019050620003ef565b8683101562000436578489015162000432601f89168262000326565b8355505b6001600288020188555050505b505050505050565b61329d806200045b6000396000f3fe60806040526004361061016a5760003560e01c806370a08231116100d1578063c67778811161008a578063d606c7a711610064578063d606c7a71461054c578063db7a460514610568578063dd62ed3e14610593578063f3fef3a3146105d057610171565b8063c6777881146104ec578063c9116b6914610517578063d0e30db01461054257610171565b806370a08231146103d75780637319da24146104145780638da5cb5b1461043d57806395d89b4114610468578063980aa14614610493578063a9059cbb146104af57610171565b806325deefbb1161012357806325deefbb1461028d5780632b09b4fd146102ca578063313ce56714610307578063354c0dac146103325780633e4fdae91461035d57806367104d811461039a57610171565b806306fdde031461017657806307953130146101a1578063095ea7b3146101bd57806318160ddd146101fa578063211d19ca1461022557806323b872dd1461025057610171565b3661017157005b600080fd5b34801561018257600080fd5b5061018b6105f9565b6040516101989190612339565b60405180910390f35b6101bb60048036038101906101b69190612396565b61068b565b005b3480156101c957600080fd5b506101e460048036038101906101df9190612421565b610890565b6040516101f1919061247c565b60405180910390f35b34801561020657600080fd5b5061020f6108b3565b60405161021c91906124a6565b60405180910390f35b34801561023157600080fd5b5061023a6108bd565b60405161024791906124a6565b60405180910390f35b34801561025c57600080fd5b50610277600480360381019061027291906124c1565b6108c3565b604051610284919061247c565b60405180910390f35b34801561029957600080fd5b506102b460048036038101906102af9190612396565b6108f2565b6040516102c1919061247c565b60405180910390f35b3480156102d657600080fd5b506102f160048036038101906102ec9190612396565b610934565b6040516102fe91906124a6565b60405180910390f35b34801561031357600080fd5b5061031c610ae2565b6040516103299190612530565b60405180910390f35b34801561033e57600080fd5b50610347610aeb565b60405161035491906124a6565b60405180910390f35b34801561036957600080fd5b50610384600480360381019061037f9190612396565b610c9d565b60405161039191906124a6565b60405180910390f35b3480156103a657600080fd5b506103c160048036038101906103bc9190612396565b610def565b6040516103ce91906124a6565b60405180910390f35b3480156103e357600080fd5b506103fe60048036038101906103f9919061254b565b610eac565b60405161040b91906124a6565b60405180910390f35b34801561042057600080fd5b5061043b60048036038101906104369190612578565b610ef5565b005b34801561044957600080fd5b5061045261131d565b60405161045f91906125d9565b60405180910390f35b34801561047457600080fd5b5061047d611341565b60405161048a9190612339565b60405180910390f35b6104ad60048036038101906104a89190612620565b6113d3565b005b3480156104bb57600080fd5b506104d660048036038101906104d19190612421565b6115e8565b6040516104e3919061247c565b60405180910390f35b3480156104f857600080fd5b5061050161160b565b60405161050e91906124a6565b60405180910390f35b34801561052357600080fd5b5061052c61167a565b60405161053991906124a6565b60405180910390f35b61054a611682565b005b61056660048036038101906105619190612396565b611684565b005b34801561057457600080fd5b5061057d611a46565b60405161058a91906127e5565b60405180910390f35b34801561059f57600080fd5b506105ba60048036038101906105b59190612807565b611b19565b6040516105c791906124a6565b60405180910390f35b3480156105dc57600080fd5b506105f760048036038101906105f29190612847565b611ba0565b005b606060048054610608906128b6565b80601f0160208091040260200160405190810160405280929190818152602001828054610634906128b6565b80156106815780601f1061065657610100808354040283529160200191610681565b820191906000526020600020905b81548152906001019060200180831161066457829003601f168201915b5050505050905090565b803373ffffffffffffffffffffffffffffffffffffffff16600682815481106106b7576106b66128e7565b5b906000526020600020906004020160000160009054906101000a900473ffffffffffffffffffffffffffffffffffffffff1673ffffffffffffffffffffffffffffffffffffffff16638da5cb5b6040518163ffffffff1660e01b8152600401602060405180830381865afa158015610733573d6000803e3d6000fd5b505050506040513d601f19601f82011682018060405250810190610757919061292b565b73ffffffffffffffffffffffffffffffffffffffff16146107ad576040517f08c379a00000000000000000000000000000000000000000000000000000000081526004016107a4906129a4565b60405180910390fd5b600682815481106107c1576107c06128e7565b5b906000526020600020906004020160000160009054906101000a900473ffffffffffffffffffffffffffffffffffffffff1673ffffffffffffffffffffffffffffffffffffffff1663d0e30db0346040518263ffffffff1660e01b81526004016000604051808303818588803b15801561083a57600080fd5b505af115801561084e573d6000803e3d6000fd5b50505050507f9e971a06d3b43e4e53777bfbdc1f8fa9fe9da7cfb685d14aa5ac6821010002e782346040516108849291906129c4565b60405180910390a15050565b60008061089b611c79565b90506108a8818585611c81565b600191505092915050565b6000600354905090565b61013d81565b6000806108ce611c79565b90506108db858285611c93565b6108e6858585611d27565b60019150509392505050565b60008060068381548110610909576109086128e7565b5b906000526020600020906004020160020154111561092a576001905061092f565b600090505b919050565b6000813373ffffffffffffffffffffffffffffffffffffffff1660068281548110610962576109616128e7565b5b906000526020600020906004020160000160009054906101000a900473ffffffffffffffffffffffffffffffffffffffff1673ffffffffffffffffffffffffffffffffffffffff16638da5cb5b6040518163ffffffff1660e01b8152600401602060405180830381865afa1580156109de573d6000803e3d6000fd5b505050506040513d601f19601f82011682018060405250810190610a02919061292b565b73ffffffffffffffffffffffffffffffffffffffff1614610a58576040517f08c379a0000000000000000000000000000000000000000000000000000000008152600401610a4f906129a4565b60405180910390fd5b68056bc75e2d6310000060068481548110610a7657610a756128e7565b5b90600052602060002090600402016001015461013d60068681548110610a9f57610a9e6128e7565b5b90600052602060002090600402016002015442610abc9190612a1c565b610ac69190612a50565b610ad09190612a50565b610ada9190612ac1565b915050919050565b60006012905090565b600080604051610afa9061229c565b604051809103906000f080158015610b16573d6000803e3d6000fd5b509050600660405180608001604052808373ffffffffffffffffffffffffffffffffffffffff16815260200160008152602001600081526020016000815250908060018154018082558091505060019003906000526020600020906004020160009091909190915060008201518160000160006101000a81548173ffffffffffffffffffffffffffffffffffffffff021916908373ffffffffffffffffffffffffffffffffffffffff16021790555060208201518160010155604082015181600201556060820151816003015550507f9cf26d8c253b8d2a02573ab7ce703010c82ac090a4615e313ad905c7c44b5f5a6001600680549050610c189190612a1c565b60066001600680549050610c2c9190612a1c565b81548110610c3d57610c3c6128e7565b5b906000526020600020906004020160000160009054906101000a900473ffffffffffffffffffffffffffffffffffffffff16604051610c7d929190612b01565b60405180910390a16001600680549050610c979190612a1c565b91505090565b6000813373ffffffffffffffffffffffffffffffffffffffff1660068281548110610ccb57610cca6128e7565b5b906000526020600020906004020160000160009054906101000a900473ffffffffffffffffffffffffffffffffffffffff1673ffffffffffffffffffffffffffffffffffffffff16638da5cb5b6040518163ffffffff1660e01b8152600401602060405180830381865afa158015610d47573d6000803e3d6000fd5b505050506040513d601f19601f82011682018060405250810190610d6b919061292b565b73ffffffffffffffffffffffffffffffffffffffff1614610dc1576040517f08c379a0000000000000000000000000000000000000000000000000000000008152600401610db8906129a4565b60405180910390fd5b60068381548110610dd557610dd46128e7565b5b906000526020600020906004020160010154915050919050565b600060068281548110610e0557610e046128e7565b5b906000526020600020906004020160000160009054906101000a900473ffffffffffffffffffffffffffffffffffffffff1673ffffffffffffffffffffffffffffffffffffffff1663c9116b696040518163ffffffff1660e01b8152600401602060405180830381865afa158015610e81573d6000803e3d6000fd5b505050506040513d601f19601f82011682018060405250810190610ea59190612b3f565b9050919050565b6000600160008373ffffffffffffffffffffffffffffffffffffffff1673ffffffffffffffffffffffffffffffffffffffff168152602001908152602001600020549050919050565b813373ffffffffffffffffffffffffffffffffffffffff1660068281548110610f2157610f206128e7565b5b906000526020600020906004020160000160009054906101000a900473ffffffffffffffffffffffffffffffffffffffff1673ffffffffffffffffffffffffffffffffffffffff16638da5cb5b6040518163ffffffff1660e01b8152600401602060405180830381865afa158015610f9d573d6000803e3d6000fd5b505050506040513d601f19601f82011682018060405250810190610fc1919061292b565b73ffffffffffffffffffffffffffffffffffffffff1614611017576040517f08c379a000000000000000000000000000000000000000000000000000000000815260040161100e906129a4565b60405180910390fd5b60006006848154811061102d5761102c6128e7565b5b906000526020600020906004020160000160009054906101000a900473ffffffffffffffffffffffffffffffffffffffff1673ffffffffffffffffffffffffffffffffffffffff1663c9116b696040518163ffffffff1660e01b8152600401602060405180830381865afa1580156110a9573d6000803e3d6000fd5b505050506040513d601f19601f820116820180604052508101906110cd9190612b3f565b1161110d576040517f08c379a000000000000000000000000000000000000000000000000000000000815260040161110490612bb8565b60405180910390fd5b60004260068581548110611124576111236128e7565b5b9060005260206000209060040201600301819055506111448430856113d3565b60006006858154811061115a576111596128e7565b5b906000526020600020906004020160020154600686815481106111805761117f6128e7565b5b90600052602060002090600402016003015461119c9190612a1c565b111561125a5768056bc75e2d63100000600685815481106111c0576111bf6128e7565b5b90600052602060002090600402016001015461013d600687815481106111e9576111e86128e7565b5b9060005260206000209060040201600201546006888154811061120f5761120e6128e7565b5b90600052602060002090600402016003015461122b9190612a1c565b6112359190612a50565b61123f9190612a50565b6112499190612ac1565b90506112553382611e1b565b600090505b426006858154811061126f5761126e6128e7565b5b9060005260206000209060040201600201819055508260068581548110611299576112986128e7565b5b9060005260206000209060040201600101546112b59190612bd8565b600685815481106112c9576112c86128e7565b5b9060005260206000209060040201600101819055507f03ee9c15a9aa119115b5dcfba0a2a62d3b604ae1da3b6f9ab41e9eccedcca4f0848460405161130f9291906129c4565b60405180910390a150505050565b60008054906101000a900473ffffffffffffffffffffffffffffffffffffffff1681565b606060058054611350906128b6565b80601f016020809104026020016040519081016040528092919081815260200182805461137c906128b6565b80156113c95780601f1061139e576101008083540402835291602001916113c9565b820191906000526020600020905b8154815290600101906020018083116113ac57829003601f168201915b5050505050905090565b823373ffffffffffffffffffffffffffffffffffffffff16600682815481106113ff576113fe6128e7565b5b906000526020600020906004020160000160009054906101000a900473ffffffffffffffffffffffffffffffffffffffff1673ffffffffffffffffffffffffffffffffffffffff16638da5cb5b6040518163ffffffff1660e01b8152600401602060405180830381865afa15801561147b573d6000803e3d6000fd5b505050506040513d601f19601f8201168201806040525081019061149f919061292b565b73ffffffffffffffffffffffffffffffffffffffff16146114f5576040517f08c379a00000000000000000000000000000000000000000000000000000000081526004016114ec906129a4565b60405180910390fd5b60068481548110611509576115086128e7565b5b906000526020600020906004020160000160009054906101000a900473ffffffffffffffffffffffffffffffffffffffff1673ffffffffffffffffffffffffffffffffffffffff1663f3fef3a384846040518363ffffffff1660e01b8152600401611575929190612c0c565b600060405180830381600087803b15801561158f57600080fd5b505af11580156115a3573d6000803e3d6000fd5b505050507fc93fb24862443badff781b729fc42cdffcaaf784827d52928c140f182f02aee68483856040516115da93929190612c68565b60405180910390a150505050565b6000806115f3611c79565b9050611600818585611d27565b600191505092915050565b6000806000905060005b60068054905081101561167257600060068281548110611638576116376128e7565b5b906000526020600020906004020160020154111561165f57818061165b90612c9f565b9250505b808061166a90612c9f565b915050611615565b508091505090565b600047905090565b565b803373ffffffffffffffffffffffffffffffffffffffff16600682815481106116b0576116af6128e7565b5b906000526020600020906004020160000160009054906101000a900473ffffffffffffffffffffffffffffffffffffffff1673ffffffffffffffffffffffffffffffffffffffff16638da5cb5b6040518163ffffffff1660e01b8152600401602060405180830381865afa15801561172c573d6000803e3d6000fd5b505050506040513d601f19601f82011682018060405250810190611750919061292b565b73ffffffffffffffffffffffffffffffffffffffff16146117a6576040517f08c379a000000000000000000000000000000000000000000000000000000000815260040161179d906129a4565b60405180910390fd5b6000600683815481106117bc576117bb6128e7565b5b9060005260206000209060040201600101540361180e576040517f08c379a000000000000000000000000000000000000000000000000000000000815260040161180590612d33565b60405180910390fd5b600060068381548110611824576118236128e7565b5b90600052602060002090600402016001015461013d6006858154811061184d5761184c6128e7565b5b90600052602060002090600402016002015460068681548110611873576118726128e7565b5b90600052602060002090600402016003015461188f9190612a1c565b6118999190612a50565b6118a39190612a50565b9050600683815481106118b9576118b86128e7565b5b906000526020600020906004020160000160009054906101000a900473ffffffffffffffffffffffffffffffffffffffff1673ffffffffffffffffffffffffffffffffffffffff166108fc60068581548110611918576119176128e7565b5b9060005260206000209060040201600101549081150290604051600060405180830381858888f19350505050158015611955573d6000803e3d6000fd5b506119603382611e1b565b7f36474d3c8400cadd9d202a431a356c5ae198ea69c301eb372cc538f983699c8e8360068581548110611996576119956128e7565b5b906000526020600020906004020160010154836040516119b893929190612d53565b60405180910390a16000600684815481106119d6576119d56128e7565b5b906000526020600020906004020160010181905550600060068481548110611a0157611a006128e7565b5b906000526020600020906004020160020181905550600060068481548110611a2c57611a2b6128e7565b5b906000526020600020906004020160030181905550505050565b60606006805480602002602001604051908101604052809291908181526020016000905b82821015611b1057838290600052602060002090600402016040518060800160405290816000820160009054906101000a900473ffffffffffffffffffffffffffffffffffffffff1673ffffffffffffffffffffffffffffffffffffffff1673ffffffffffffffffffffffffffffffffffffffff168152602001600182015481526020016002820154815260200160038201548152505081526020019060010190611a6a565b50505050905090565b6000600260008473ffffffffffffffffffffffffffffffffffffffff1673ffffffffffffffffffffffffffffffffffffffff16815260200190815260200160002060008373ffffffffffffffffffffffffffffffffffffffff1673ffffffffffffffffffffffffffffffffffffffff16815260200190815260200160002054905092915050565b60008054906101000a900473ffffffffffffffffffffffffffffffffffffffff1673ffffffffffffffffffffffffffffffffffffffff163273ffffffffffffffffffffffffffffffffffffffff1614611c2e576040517f08c379a0000000000000000000000000000000000000000000000000000000008152600401611c2590612dd6565b60405180910390fd5b8173ffffffffffffffffffffffffffffffffffffffff166108fc829081150290604051600060405180830381858888f19350505050158015611c74573d6000803e3d6000fd5b505050565b600033905090565b611c8e8383836001611e9d565b505050565b6000611c9f8484611b19565b90507fffffffffffffffffffffffffffffffffffffffffffffffffffffffffffffffff8114611d215781811015611d11578281836040517ffb8f41b2000000000000000000000000000000000000000000000000000000008152600401611d0893929190612df6565b60405180910390fd5b611d2084848484036000611e9d565b5b50505050565b600073ffffffffffffffffffffffffffffffffffffffff168373ffffffffffffffffffffffffffffffffffffffff1603611d995760006040517f96c6fd1e000000000000000000000000000000000000000000000000000000008152600401611d909190612e2d565b60405180910390fd5b600073ffffffffffffffffffffffffffffffffffffffff168273ffffffffffffffffffffffffffffffffffffffff1603611e0b5760006040517fec442f05000000000000000000000000000000000000000000000000000000008152600401611e029190612e2d565b60405180910390fd5b611e16838383612074565b505050565b600073ffffffffffffffffffffffffffffffffffffffff168273ffffffffffffffffffffffffffffffffffffffff1603611e8d5760006040517fec442f05000000000000000000000000000000000000000000000000000000008152600401611e849190612e2d565b60405180910390fd5b611e9960008383612074565b5050565b600073ffffffffffffffffffffffffffffffffffffffff168473ffffffffffffffffffffffffffffffffffffffff1603611f0f5760006040517fe602df05000000000000000000000000000000000000000000000000000000008152600401611f069190612e2d565b60405180910390fd5b600073ffffffffffffffffffffffffffffffffffffffff168373ffffffffffffffffffffffffffffffffffffffff1603611f815760006040517f94280d62000000000000000000000000000000000000000000000000000000008152600401611f789190612e2d565b60405180910390fd5b81600260008673ffffffffffffffffffffffffffffffffffffffff1673ffffffffffffffffffffffffffffffffffffffff16815260200190815260200160002060008573ffffffffffffffffffffffffffffffffffffffff1673ffffffffffffffffffffffffffffffffffffffff16815260200190815260200160002081905550801561206e578273ffffffffffffffffffffffffffffffffffffffff168473ffffffffffffffffffffffffffffffffffffffff167f8c5be1e5ebec7d5bd14f71427d1e84f3dd0314c0f7b2291e5b200ac8c7c3b9258460405161206591906124a6565b60405180910390a35b50505050565b600073ffffffffffffffffffffffffffffffffffffffff168373ffffffffffffffffffffffffffffffffffffffff16036120c65780600360008282546120ba9190612bd8565b9250508190555061219b565b6000600160008573ffffffffffffffffffffffffffffffffffffffff1673ffffffffffffffffffffffffffffffffffffffff16815260200190815260200160002054905081811015612153578381836040517fe450d38c00000000000000000000000000000000000000000000000000000000815260040161214a93929190612df6565b60405180910390fd5b818103600160008673ffffffffffffffffffffffffffffffffffffffff1673ffffffffffffffffffffffffffffffffffffffff16815260200190815260200160002081905550505b600073ffffffffffffffffffffffffffffffffffffffff168273ffffffffffffffffffffffffffffffffffffffff16036121e45780600360008282540392505081905550612232565b80600160008473ffffffffffffffffffffffffffffffffffffffff1673ffffffffffffffffffffffffffffffffffffffff168152602001908152602001600020600082825401925050819055505b8173ffffffffffffffffffffffffffffffffffffffff168373ffffffffffffffffffffffffffffffffffffffff167fddf252ad1be2c89b69c2b068fc378daa952ba7f163c4a11628f55a4df523b3ef8360405161228f91906124a6565b60405180910390a3505050565b61041f80612e4983390190565b600081519050919050565b600082825260208201905092915050565b60005b838110156122e35780820151818401526020810190506122c8565b60008484015250505050565b6000601f19601f8301169050919050565b600061230b826122a9565b61231581856122b4565b93506123258185602086016122c5565b61232e816122ef565b840191505092915050565b600060208201905081810360008301526123538184612300565b905092915050565b600080fd5b6000819050919050565b61237381612360565b811461237e57600080fd5b50565b6000813590506123908161236a565b92915050565b6000602082840312156123ac576123ab61235b565b5b60006123ba84828501612381565b91505092915050565b600073ffffffffffffffffffffffffffffffffffffffff82169050919050565b60006123ee826123c3565b9050919050565b6123fe816123e3565b811461240957600080fd5b50565b60008135905061241b816123f5565b92915050565b600080604083850312156124385761243761235b565b5b60006124468582860161240c565b925050602061245785828601612381565b9150509250929050565b60008115159050919050565b61247681612461565b82525050565b6000602082019050612491600083018461246d565b92915050565b6124a081612360565b82525050565b60006020820190506124bb6000830184612497565b92915050565b6000806000606084860312156124da576124d961235b565b5b60006124e88682870161240c565b93505060206124f98682870161240c565b925050604061250a86828701612381565b9150509250925092565b600060ff82169050919050565b61252a81612514565b82525050565b60006020820190506125456000830184612521565b92915050565b6000602082840312156125615761256061235b565b5b600061256f8482850161240c565b91505092915050565b6000806040838503121561258f5761258e61235b565b5b600061259d85828601612381565b92505060206125ae85828601612381565b9150509250929050565b60006125c3826123c3565b9050919050565b6125d3816125b8565b82525050565b60006020820190506125ee60008301846125ca565b92915050565b6125fd816125b8565b811461260857600080fd5b50565b60008135905061261a816125f4565b92915050565b6000806000606084860312156126395761263861235b565b5b600061264786828701612381565b93505060206126588682870161260b565b925050604061266986828701612381565b9150509250925092565b600081519050919050565b600082825260208201905092915050565b6000819050602082019050919050565b6000819050919050565b60006126c46126bf6126ba846123c3565b61269f565b6123c3565b9050919050565b60006126d6826126a9565b9050919050565b60006126e8826126cb565b9050919050565b6126f8816126dd565b82525050565b61270781612360565b82525050565b60808201600082015161272360008501826126ef565b50602082015161273660208501826126fe565b50604082015161274960408501826126fe565b50606082015161275c60608501826126fe565b50505050565b600061276e838361270d565b60808301905092915050565b6000602082019050919050565b600061279282612673565b61279c818561267e565b93506127a78361268f565b8060005b838110156127d85781516127bf8882612762565b97506127ca8361277a565b9250506001810190506127ab565b5085935050505092915050565b600060208201905081810360008301526127ff8184612787565b905092915050565b6000806040838503121561281e5761281d61235b565b5b600061282c8582860161240c565b925050602061283d8582860161240c565b9150509250929050565b6000806040838503121561285e5761285d61235b565b5b600061286c8582860161260b565b925050602061287d85828601612381565b9150509250929050565b7f4e487b7100000000000000000000000000000000000000000000000000000000600052602260045260246000fd5b600060028204905060018216806128ce57607f821691505b6020821081036128e1576128e0612887565b5b50919050565b7f4e487b7100000000000000000000000000000000000000000000000000000000600052603260045260246000fd5b600081519050612925816125f4565b92915050565b6000602082840312156129415761294061235b565b5b600061294f84828501612916565b91505092915050565b7f6e6f6e2073656920696c2070726f706965746172696f00000000000000000000600082015250565b600061298e6016836122b4565b915061299982612958565b602082019050919050565b600060208201905081810360008301526129bd81612981565b9050919050565b60006040820190506129d96000830185612497565b6129e66020830184612497565b9392505050565b7f4e487b7100000000000000000000000000000000000000000000000000000000600052601160045260246000fd5b6000612a2782612360565b9150612a3283612360565b9250828203905081811115612a4a57612a496129ed565b5b92915050565b6000612a5b82612360565b9150612a6683612360565b9250828202612a7481612360565b91508282048414831517612a8b57612a8a6129ed565b5b5092915050565b7f4e487b7100000000000000000000000000000000000000000000000000000000600052601260045260246000fd5b6000612acc82612360565b9150612ad783612360565b925082612ae757612ae6612a92565b5b828204905092915050565b612afb816123e3565b82525050565b6000604082019050612b166000830185612497565b612b236020830184612af2565b9392505050565b600081519050612b398161236a565b92915050565b600060208284031215612b5557612b5461235b565b5b6000612b6384828501612b2a565b91505092915050565b7f686169207a65726f20666f6e6469206e656c2077616c6c657400000000000000600082015250565b6000612ba26019836122b4565b9150612bad82612b6c565b602082019050919050565b60006020820190508181036000830152612bd181612b95565b9050919050565b6000612be382612360565b9150612bee83612360565b9250828201905080821115612c0657612c056129ed565b5b92915050565b6000604082019050612c2160008301856125ca565b612c2e6020830184612497565b9392505050565b6000612c40826126a9565b9050919050565b6000612c5282612c35565b9050919050565b612c6281612c47565b82525050565b6000606082019050612c7d6000830186612497565b612c8a6020830185612497565b612c976040830184612c59565b949350505050565b6000612caa82612360565b91507fffffffffffffffffffffffffffffffffffffffffffffffffffffffffffffffff8203612cdc57612cdb6129ed565b5b600182019050919050565b7f796f75206861766520616c726561647920646f6e6520756e7374616b65000000600082015250565b6000612d1d601d836122b4565b9150612d2882612ce7565b602082019050919050565b60006020820190508181036000830152612d4c81612d10565b9050919050565b6000606082019050612d686000830186612497565b612d756020830185612497565b612d826040830184612497565b949350505050565b7f4e6f7420616e206f776e6572206f66207468652077616c6c6574000000000000600082015250565b6000612dc0601a836122b4565b9150612dcb82612d8a565b602082019050919050565b60006020820190508181036000830152612def81612db3565b9050919050565b6000606082019050612e0b6000830186612af2565b612e186020830185612497565b612e256040830184612497565b949350505050565b6000602082019050612e426000830184612af2565b9291505056fe608060405234801561001057600080fd5b50326000806101000a81548173ffffffffffffffffffffffffffffffffffffffff021916908373ffffffffffffffffffffffffffffffffffffffff1602179055506103bf806100606000396000f3fe6080604052600436106100435760003560e01c80638da5cb5b1461004f578063c9116b691461007a578063d0e30db0146100a5578063f3fef3a3146100af5761004a565b3661004a57005b600080fd5b34801561005b57600080fd5b506100646100d8565b6040516100719190610220565b60405180910390f35b34801561008657600080fd5b5061008f6100fc565b60405161009c9190610254565b60405180910390f35b6100ad610104565b005b3480156100bb57600080fd5b506100d660048036038101906100d191906102cc565b610106565b005b60008054906101000a900473ffffffffffffffffffffffffffffffffffffffff1681565b600047905090565b565b60008054906101000a900473ffffffffffffffffffffffffffffffffffffffff1673ffffffffffffffffffffffffffffffffffffffff163273ffffffffffffffffffffffffffffffffffffffff1614610194576040517f08c379a000000000000000000000000000000000000000000000000000000000815260040161018b90610369565b60405180910390fd5b8173ffffffffffffffffffffffffffffffffffffffff166108fc829081150290604051600060405180830381858888f193505050501580156101da573d6000803e3d6000fd5b505050565b600073ffffffffffffffffffffffffffffffffffffffff82169050919050565b600061020a826101df565b9050919050565b61021a816101ff565b82525050565b60006020820190506102356000830184610211565b92915050565b6000819050919050565b61024e8161023b565b82525050565b60006020820190506102696000830184610245565b92915050565b600080fd5b61027d816101ff565b811461028857600080fd5b50565b60008135905061029a81610274565b92915050565b6102a98161023b565b81146102b457600080fd5b50565b6000813590506102c6816102a0565b92915050565b600080604083850312156102e3576102e261026f565b5b60006102f18582860161028b565b9250506020610302858286016102b7565b9150509250929050565b600082825260208201905092915050565b7f4e6f7420616e206f776e6572206f66207468652077616c6c6574000000000000600082015250565b6000610353601a8361030c565b915061035e8261031d565b602082019050919050565b6000602082019050818103600083015261038281610346565b905091905056fea2646970667358221220e2da60ff8824b44ee0e898d01be4c7ace5fe7b409dc925e9726ee90799e56b3764736f6c63430008140033a2646970667358221220d7bf425e59f8353e7e2e13da368a190f556ce3d17957026bd55b6f13c5493b4a64736f6c63430008140033",
  "linkReferences": {},
  "deployedLinkReferences": {}
}