{
  "_format": "hh-sol-artifact-1",
  "contractName": "EtherWallet",
  "sourceName": "contracts/EtherWallet.sol",
  "abi": [
    {
      "inputs": [],
      "stateMutability": "nonpayable",
      "type": "constructor"
    },
    {
      "inputs": [],
      "name": "deposit",
      "outputs": [],
      "stateMutability": "payable",
      "type": "function"
    },
    {
      "inputs": [],
      "name": "myBalance",
      "outputs": [
        {
          "internalType": "uint256",
          "name": "",
          "type": "uint256"
        }
      ],
      "stateMutability": "view",
      "type": "function"
    },
    {
      "inputs": [],
      "name": "owner",
      "outputs": [
        {
          "internalType": "address payable",
          "name": "",
          "type": "address"
        }
      ],
      "stateMutability": "view",
      "type": "function"
    },
    {
      "inputs": [
        {
          "internalType": "address payable",
          "name": "reciver",
          "type": "address"
        },
        {
          "internalType": "uint256",
          "name": "amount",
          "type": "uint256"
        }
      ],
      "name": "withdraw",
      "outputs": [],
      "stateMutability": "nonpayable",
      "type": "function"
    },
    {
      "stateMutability": "payable",
      "type": "receive"
    }
  ],
  "bytecode": "0x608060405234801561001057600080fd5b50326000806101000a81548173ffffffffffffffffffffffffffffffffffffffff021916908373ffffffffffffffffffffffffffffffffffffffff1602179055506103bf806100606000396000f3fe6080604052600436106100435760003560e01c80638da5cb5b1461004f578063c9116b691461007a578063d0e30db0146100a5578063f3fef3a3146100af5761004a565b3661004a57005b600080fd5b34801561005b57600080fd5b506100646100d8565b6040516100719190610220565b60405180910390f35b34801561008657600080fd5b5061008f6100fc565b60405161009c9190610254565b60405180910390f35b6100ad610104565b005b3480156100bb57600080fd5b506100d660048036038101906100d191906102cc565b610106565b005b60008054906101000a900473ffffffffffffffffffffffffffffffffffffffff1681565b600047905090565b565b60008054906101000a900473ffffffffffffffffffffffffffffffffffffffff1673ffffffffffffffffffffffffffffffffffffffff163273ffffffffffffffffffffffffffffffffffffffff1614610194576040517f08c379a000000000000000000000000000000000000000000000000000000000815260040161018b90610369565b60405180910390fd5b8173ffffffffffffffffffffffffffffffffffffffff166108fc829081150290604051600060405180830381858888f193505050501580156101da573d6000803e3d6000fd5b505050565b600073ffffffffffffffffffffffffffffffffffffffff82169050919050565b600061020a826101df565b9050919050565b61021a816101ff565b82525050565b60006020820190506102356000830184610211565b92915050565b6000819050919050565b61024e8161023b565b82525050565b60006020820190506102696000830184610245565b92915050565b600080fd5b61027d816101ff565b811461028857600080fd5b50565b60008135905061029a81610274565b92915050565b6102a98161023b565b81146102b457600080fd5b50565b6000813590506102c6816102a0565b92915050565b600080604083850312156102e3576102e261026f565b5b60006102f18582860161028b565b9250506020610302858286016102b7565b9150509250929050565b600082825260208201905092915050565b7f4e6f7420616e206f776e6572206f66207468652077616c6c6574000000000000600082015250565b6000610353601a8361030c565b915061035e8261031d565b602082019050919050565b6000602082019050818103600083015261038281610346565b905091905056fea2646970667358221220e2da60ff8824b44ee0e898d01be4c7ace5fe7b409dc925e9726ee90799e56b3764736f6c63430008140033",
  "linkReferences": {},
  "deployedLinkReferences": {}
}